:100000000C9434000C9451000C9451000C94510049
:100010000C9451000C9451000C9451000C9451001C
:100020000C9451000C9451000C9451000C9451000C
:100030000C9451000C9451000C9451000C945100FC
:100040000C9451000C9451000C944F020C945100EC
:100050000C9451000C9451000C9451000C945100DC
:100060000C9451000C94510011241FBECFEFD4E02A
:10007000DEBFCDBF11E0A0E0B1E0E8EFF5E002C0E7
:1000800005900D92A630B107D9F711E0A6E0B1E0D6
:1000900001C01D92A43BB107E1F70E94A3020C949A
:1000A000FA020C9400000E942D028A3A09F44CC016
:1000B00020910901213039F0213020F0223039F12E
:1000C000109209010895809333012AE031E03093C2
:1000D00001012093000120910601821771F1982FF0
:1000E000905F9F3040F530E090E08F709070829587
:1000F0009295907F9827807F98272817390724F0BA
:100100000F9682179307CCF4109209010895E0919D
:100110000001F09101018193F0930101E09300014E
:10012000EA50F1408091320190E0E817F90781F040
:100130002093090108958F3F39F780E180933201C0
:1001400082E080930901089581E080930901089578
:10015000109209010E943301089540910601942FE5
:1001600092959F7028B1292B28B988B1906F982358
:1001700098B988E893E124EF31E0F9013197F1F77C
:100180000197D9F7842F8F7098B1982B98B998B1AF
:10019000806F892388B988E893E124EF31E0F90181
:1001A0003197F1F70197D9F708958F7098B1982B8F
:1001B00098B998B1806F892388B9089598B121E0E2
:1001C00030E002C0220F331F8A95E2F7922B98B9D4
:1001D000089598B121E030E002C0220F331F8A95C4
:1001E000E2F72095292328B9089587B18F6087B950
:1001F00088B1807F88B90895F999FECF81E090E0B9
:100200000E94DC020895F999FECF83E090E00E94FD
:10021000E4022FEF8F3F920709F0089580E490E009
:100220000895F999FECF82E090E00E94DC028F3FB2
:1002300011F08170089581E008951F93CF93DF93AB
:10024000CAE0D1E010E089910E94FA01AC018AE194
:1002500091E0612F0E9489011F5F1031A1F7DF91AA
:10026000CF911F9108950E941D010E94720108956F
:10027000219A2998229A539A2A9A239A259A229A5D
:100280002D9880E58CBD8CB582608CBD80E280931A
:100290008000E1E8F0E080E18083808181608083FC
:1002A00081E090E0909389008093880082E090E064
:1002B00090938B0080938A0080E098E4909387006D
:1002C0008093860083E28093B000E1EBF0E088E069
:1002D000808380818160808389E08093B300109265
:1002E000B400089580E090E0FC01E65EFE4F2081BE
:1002F0002EBD0DB407FEFDCF019688319105A1F703
:10030000299A86E0982F9A95F1F729988A95F1F71E
:1003100008959C01DA0170E0CB01880F991F860FC8
:10032000971F9595879560FD13C097E1981B892FBE
:1003300090E0FC013197E20FF31F4081407F5B2F7B
:100340005F70452B4083820F931FFC01A0830895AB
:1003500046E1481B50E0F901E40FF51FCD019295ED
:1003600082958F7089279F7089278083FA01319643
:10037000E20FF31F80818F70A295A07F8A2B80836C
:10038000089570E09B01220F331F260F371F35950C
:10039000279560FD17C037E1321B232F30E0F901AC
:1003A0003197E80FF91F4081280F391FF90120818B
:1003B000842F90E08F709070982F882730E0822BE8
:1003C000932B0895E6E1E21BF0E0DC01AE0FBF1FC6
:1003D0002C913196E80FF91F808182958F7090E003
:1003E00030E022953295307F3227207F3227822BD2
:1003F000932B0895282F22952F7030E090E082955E
:100400009295907F9827807F9827282B392BC901B8
:100410000895529A5A980E9403019093C5008093C0
:10042000C4000E941101880F8093C00080E980936E
:10043000C100E2ECF0E086E080838081806280830E
:1004400084E391E09093050180930401909303016C
:1004500080930201109208010895F8948091080198
:100460008823E1F3E0910201F091030181919091E1
:100470000801915090930801F0930301E093020169
:1004800091E0E43BF90730F024E331E030930301DD
:1004900020930201789408958091080108951F9295
:1004A0000F920FB60F9211242F933F934F935F93A8
:1004B0006F937F938F939F93AF93BF93EF93FF932C
:1004C0008091C00082FD3BC09091C60080910801E0
:1004D000813870F5E0910401F091050190838091DD
:1004E00008018F5F809308018091040190910501BC
:1004F0000196909305018093040121E0843B9207CB
:1005000030F084E391E09093050180930401FF9122
:10051000EF91BF91AF919F918F917F916F915F917B
:100520004F913F912F910F900FBE0F901F901895F4
:10053000F8941092070182E00E94DE00E8CF81E08B
:100540000E94DE00E4CF0E94F5000E9438010E9464
:1005500072010E94FC00809306010E94090280E063
:100560000E94D500789481E080930701C0E9D1E032
:1005700004C00E944C028823E1F48091C0008C7179
:1005800031F0F8941092C100C093C100789480912A
:100590000701882371F780910801803450F782E0C9
:1005A0000E94E900D093070178940E944C028823AE
:1005B00021F30E945300E1CFF999FECF92BD81BD96
:1005C000F89A992780B50895A8E1B0E042E050E09C
:1005D0000C94EC02DC01CB01FC01F999FECF06C0C2
:1005E000F2BDE1BDF89A319600B40D9241505040F1
:0805F000B8F70895F894FFCF5D
:0605F8000A013401340188
:00000001FF
